{
  "contractName": "Pool",
  "abi": [
    {
      "inputs": [
        {
          "internalType": "address",
          "name": "_routerAddr",
          "type": "address"
        },
        {
          "internalType": "address",
          "name": "_cakeTokenAddr",
          "type": "address"
        },
        {
          "internalType": "address",
          "name": "_fakeFarmAddr",
          "type": "address"
        }
      ],
      "stateMutability": "nonpayable",
      "type": "constructor"
    },
    {
      "inputs": [],
      "name": "owner",
      "outputs": [
        {
          "internalType": "address",
          "name": "",
          "type": "address"
        }
      ],
      "stateMutability": "view",
      "type": "function",
      "constant": true
    },
    {
      "inputs": [
        {
          "internalType": "address",
          "name": "",
          "type": "address"
        }
      ],
      "name": "stakingAmts",
      "outputs": [
        {
          "internalType": "uint256",
          "name": "",
          "type": "uint256"
        }
      ],
      "stateMutability": "view",
      "type": "function",
      "constant": true
    },
    {
      "inputs": [
        {
          "internalType": "address",
          "name": "_contract",
          "type": "address"
        }
      ],
      "name": "setSwapper",
      "outputs": [],
      "stateMutability": "nonpayable",
      "type": "function"
    },
    {
      "inputs": [],
      "name": "deposit",
      "outputs": [],
      "stateMutability": "payable",
      "type": "function",
      "payable": true
    },
    {
      "inputs": [],
      "name": "lottery",
      "outputs": [],
      "stateMutability": "nonpayable",
      "type": "function"
    },
    {
      "inputs": [],
      "name": "distribute",
      "outputs": [
        {
          "internalType": "uint256",
          "name": "",
          "type": "uint256"
        }
      ],
      "stateMutability": "nonpayable",
      "type": "function"
    },
    {
      "inputs": [],
      "name": "withdraw",
      "outputs": [
        {
          "internalType": "uint256",
          "name": "",
          "type": "uint256"
        }
      ],
      "stateMutability": "nonpayable",
      "type": "function"
    },
    {
      "inputs": [],
      "name": "getStaked",
      "outputs": [
        {
          "internalType": "uint256",
          "name": "",
          "type": "uint256"
        }
      ],
      "stateMutability": "view",
      "type": "function",
      "constant": true
    },
    {
      "inputs": [],
      "name": "getStakingUsers",
      "outputs": [
        {
          "internalType": "address[]",
          "name": "",
          "type": "address[]"
        }
      ],
      "stateMutability": "view",
      "type": "function",
      "constant": true
    },
    {
      "inputs": [
        {
          "internalType": "address",
          "name": "_key",
          "type": "address"
        }
      ],
      "name": "getStakingAmount",
      "outputs": [
        {
          "internalType": "uint256",
          "name": "",
          "type": "uint256"
        }
      ],
      "stateMutability": "view",
      "type": "function",
      "constant": true
    },
    {
      "inputs": [],
      "name": "test",
      "outputs": [
        {
          "internalType": "string",
          "name": "",
          "type": "string"
        }
      ],
      "stateMutability": "pure",
      "type": "function",
      "constant": true
    }
  ],
  "bytecode": "0x60806040523480156200001157600080fd5b506040516200181238038062001812833981810160405260608110156200003757600080fd5b8101908080519060200190929190805190602001909291908051906020019092919050505033600860006101000a81548173ffffffffffffffffffffffffffffffffffffffff021916908373ffffffffffffffffffffffffffffffffffffffff16021790555082600460006101000a81548173ffffffffffffffffffffffffffffffffffffffff021916908373ffffffffffffffffffffffffffffffffffffffff16021790555081600560006101000a81548173ffffffffffffffffffffffffffffffffffffffff021916908373ffffffffffffffffffffffffffffffffffffffff16021790555080600660006101000a81548173ffffffffffffffffffffffffffffffffffffffff021916908373ffffffffffffffffffffffffffffffffffffffff16021790555073ae13d989dac2f0debff460ac112a837c89baa7cd600160006101000a81548173ffffffffffffffffffffffffffffffffffffffff021916908373ffffffffffffffffffffffffffffffffffffffff16021790555073f9f93cf501bfadb6494589cb4b4c15de49e85d0e600260006101000a81548173ffffffffffffffffffffffffffffffffffffffff021916908373ffffffffffffffffffffffffffffffffffffffff16021790555080600360006101000a81548173ffffffffffffffffffffffffffffffffffffffff021916908373ffffffffffffffffffffffffffffffffffffffff1602179055506000600a81905550606467ffffffffffffffff811180156200026c57600080fd5b506040519080825280602002602001820160405280156200029c5781602001602082028036833780820191505090505b50600c9080519060200190620002b4929190620002c6565b50600560078190555050505062000392565b82805482825590600052602060002090810192821562000342579160200282015b82811115620003415782518260006101000a81548173ffffffffffffffffffffffffffffffffffffffff021916908373ffffffffffffffffffffffffffffffffffffffff16021790555091602001919060010190620002e7565b5b50905062000351919062000355565b5090565b5b808211156200038e57600081816101000a81549073ffffffffffffffffffffffffffffffffffffffff02191690555060010162000356565b5090565b61147080620003a26000396000f3fe60806040526004361061009c5760003560e01c80639c82f2a4116100645780639c82f2a414610243578063ba13a57214610294578063c59abf9f146102ab578063d0e30db0146102d6578063e4fc6b6d146102e0578063f8a8fd6d1461030b5761009c565b80631d2673b7146100a15780633ccfd60b1461010d5780633e97ead31461013857806374363daa1461019d5780638da5cb5b14610202575b600080fd5b3480156100ad57600080fd5b506100b661039b565b6040518080602001828103825283818151815260200191508051906020019060200280838360005b838110156100f95780820151818401526020810190506100de565b505050509050019250505060405180910390f35b34801561011957600080fd5b50610122610429565b6040518082815260200191505060405180910390f35b34801561014457600080fd5b506101876004803603602081101561015b57600080fd5b81019080803573ffffffffffffffffffffffffffffffffffffffff169060200190929190505050610770565b6040518082815260200191505060405180910390f35b3480156101a957600080fd5b506101ec600480360360208110156101c057600080fd5b81019080803573ffffffffffffffffffffffffffffffffffffffff169060200190929190505050610788565b6040518082815260200191505060405180910390f35b34801561020e57600080fd5b506102176107d1565b604051808273ffffffffffffffffffffffffffffffffffffffff16815260200191505060405180910390f35b34801561024f57600080fd5b506102926004803603602081101561026657600080fd5b81019080803573ffffffffffffffffffffffffffffffffffffffff1690602001909291905050506107f7565b005b3480156102a057600080fd5b506102a961083b565b005b3480156102b757600080fd5b506102c0610ccf565b6040518082815260200191505060405180910390f35b6102de610cd8565b005b3480156102ec57600080fd5b506102f5611104565b6040518082815260200191505060405180910390f35b34801561031757600080fd5b50610320611109565b6040518080602001828103825283818151815260200191508051906020019080838360005b83811015610360578082015181840152602081019050610345565b50505050905090810190601f16801561038d5780820380516001836020036101000a031916815260200191505b509250505060405180910390f35b6060600c80548060200260200160405190810160405280929190818152602001828054801561041f57602002820191906000526020600020905b8160009054906101000a900473ffffffffffffffffffffffffffffffffffffffff1673ffffffffffffffffffffffffffffffffffffffff16815260200190600101908083116103d5575b5050505050905090565b60006060600267ffffffffffffffff8111801561044557600080fd5b506040519080825280602002602001820160405280156104745781602001602082028036833780820191505090505b509050600260009054906101000a900473ffffffffffffffffffffffffffffffffffffffff16816000815181106104a757fe5b602002602001019073ffffffffffffffffffffffffffffffffffffffff16908173ffffffffffffffffffffffffffffffffffffffff1681525050600160009054906101000a900473ffffffffffffffffffffffffffffffffffffffff168160018151811061051157fe5b602002602001019073ffffffffffffffffffffffffffffffffffffffff16908173ffffffffffffffffffffffffffffffffffffffff16815250506060600460009054906101000a900473ffffffffffffffffffffffffffffffffffffffff1673ffffffffffffffffffffffffffffffffffffffff166318cbafe5600960003373ffffffffffffffffffffffffffffffffffffffff1673ffffffffffffffffffffffffffffffffffffffff168152602001908152602001600020546000853063635f34e16040518663ffffffff1660e01b815260040180868152602001858152602001806020018473ffffffffffffffffffffffffffffffffffffffff168152602001838152602001828103825285818151815260200191508051906020019060200280838360005b83811015610654578082015181840152602081019050610639565b505050509050019650505050505050600060405180830381600087803b15801561067d57600080fd5b505af1158015610691573d6000803e3d6000fd5b505050506040513d6000823e3d601f19601f8201168201806040525060208110156106bb57600080fd5b81019080805160405193929190846401000000008211156106db57600080fd5b838201915060208201858111156106f157600080fd5b825186602082028301116401000000008211171561070e57600080fd5b8083526020830192505050908051906020019060200280838360005b8381101561074557808201518184015260208101905061072a565b5050505090500160405250505090508060008151811061076157fe5b60200260200101519250505090565b60096020528060005260406000206000915090505481565b6000600960008373ffffffffffffffffffffffffffffffffffffffff1673ffffffffffffffffffffffffffffffffffffffff168152602001908152602001600020549050919050565b600860009054906101000a900473ffffffffffffffffffffffffffffffffffffffff1681565b80600460006101000a81548173ffffffffffffffffffffffffffffffffffffffff021916908373ffffffffffffffffffffffffffffffffffffffff16021790555050565b600860009054906101000a900473ffffffffffffffffffffffffffffffffffffffff1673ffffffffffffffffffffffffffffffffffffffff163373ffffffffffffffffffffffffffffffffffffffff16146108fe576040517f08c379a00000000000000000000000000000000000000000000000000000000081526004018080602001828103825260098152602001807f4e6f74206f776e6572000000000000000000000000000000000000000000000081525060200191505060405180910390fd5b6000600660009054906101000a900473ffffffffffffffffffffffffffffffffffffffff1673ffffffffffffffffffffffffffffffffffffffff16632def66206040518163ffffffff1660e01b8152600401602060405180830381600087803b15801561096a57600080fd5b505af115801561097e573d6000803e3d6000fd5b505050506040513d602081101561099457600080fd5b810190808051906020019092919050505090506000600560009054906101000a900473ffffffffffffffffffffffffffffffffffffffff1673ffffffffffffffffffffffffffffffffffffffff166370a08231306040518263ffffffff1660e01b8152600401808273ffffffffffffffffffffffffffffffffffffffff16815260200191505060206040518083038186803b158015610a3257600080fd5b505afa158015610a46573d6000803e3d6000fd5b505050506040513d6020811015610a5c57600080fd5b8101908080519060200190929190505050905060006103e890506060600a5467ffffffffffffffff81118015610a9157600080fd5b50604051908082528060200260200182016040528015610ac05781602001602082028036833780820191505090505b5090506000805b600a54811015610b9157600060096000600c8481548110610ae457fe5b9060005260206000200160009054906101000a900473ffffffffffffffffffffffffffffffffffffffff1673ffffffffffffffffffffffffffffffffffffffff1673ffffffffffffffffffffffffffffffffffffffff16815260200190815260200160002054905060008563ffffffff166000548381610b6057fe5b0402905080858481518110610b7157fe5b602002602001018181525050808401935050508080600101915050610ac7565b5060006064600a5411610ba5576001610ba8565b600a5b60ff169050600081600054870381610bbc57fe5b04905060005b828160ff161015610cbe576000610bdb60018601611146565b905060005b600a54811015610caf5781878281518110610bf757fe5b60200260200101511015610c1e57868181518110610c1157fe5b6020026020010151820391505b8360096000600c8481548110610c3057fe5b9060005260206000200160009054906101000a900473ffffffffffffffffffffffffffffffffffffffff1673ffffffffffffffffffffffffffffffffffffffff1673ffffffffffffffffffffffffffffffffffffffff168152602001908152602001600020600082825401925050819055508080600101915050610be0565b50508080600101915050610bc2565b508560008190555050505050505050565b60008054905090565b6060600267ffffffffffffffff81118015610cf257600080fd5b50604051908082528060200260200182016040528015610d215781602001602082028036833780820191505090505b509050600160009054906101000a900473ffffffffffffffffffffffffffffffffffffffff1681600081518110610d5457fe5b602002602001019073ffffffffffffffffffffffffffffffffffffffff16908173ffffffffffffffffffffffffffffffffffffffff1681525050600260009054906101000a900473ffffffffffffffffffffffffffffffffffffffff1681600181518110610dbe57fe5b602002602001019073ffffffffffffffffffffffffffffffffffffffff16908173ffffffffffffffffffffffffffffffffffffffff16815250506060600460009054906101000a900473ffffffffffffffffffffffffffffffffffffffff1673ffffffffffffffffffffffffffffffffffffffff16637ff36ab5346000853063635f34e16040518663ffffffff1660e01b815260040180858152602001806020018473ffffffffffffffffffffffffffffffffffffffff168152602001838152602001828103825285818151815260200191508051906020019060200280838360005b83811015610ebc578082015181840152602081019050610ea1565b50505050905001955050505050506000604051808303818588803b158015610ee357600080fd5b505af1158015610ef7573d6000803e3d6000fd5b50505050506040513d6000823e3d601f19601f820116820180604052506020811015610f2257600080fd5b8101908080516040519392919084640100000000821115610f4257600080fd5b83820191506020820185811115610f5857600080fd5b8251866020820283011164010000000082111715610f7557600080fd5b8083526020830192505050908051906020019060200280838360005b83811015610fac578082015181840152602081019050610f91565b5050505090500160405250505090506000600960003373ffffffffffffffffffffffffffffffffffffffff1673ffffffffffffffffffffffffffffffffffffffff16815260200190815260200160002054141561106d5733600c600a548154811061101357fe5b9060005260206000200160006101000a81548173ffffffffffffffffffffffffffffffffffffffff021916908373ffffffffffffffffffffffffffffffffffffffff1602179055506001600a600082825401925050819055505b8060018251038151811061107d57fe5b6020026020010151600960003373ffffffffffffffffffffffffffffffffffffffff1673ffffffffffffffffffffffffffffffffffffffff16815260200190815260200160002060008282540192505081905550806001825103815181106110e157fe5b602002602001015160008082825401925050819055506110ff6111bf565b505050565b600090565b60606040518060400160405280600381526020017f706f6f0000000000000000000000000000000000000000000000000000000000815250905090565b6000600b60008154809291906001019190505550814233600b54604051602001808481526020018373ffffffffffffffffffffffffffffffffffffffff1660601b815260140182815260200193505050506040516020818303038152906040528051906020012060001c816111b757fe5b069050919050565b6000600560009054906101000a900473ffffffffffffffffffffffffffffffffffffffff1673ffffffffffffffffffffffffffffffffffffffff1663095ea7b3600360009054906101000a900473ffffffffffffffffffffffffffffffffffffffff1669152d02c7e14af68000006040518363ffffffff1660e01b8152600401808373ffffffffffffffffffffffffffffffffffffffff16815260200182815260200192505050602060405180830381600087803b15801561128057600080fd5b505af1158015611294573d6000803e3d6000fd5b505050506040513d60208110156112aa57600080fd5b8101908080519060200190929190505050506000600660009054906101000a900473ffffffffffffffffffffffffffffffffffffffff1673ffffffffffffffffffffffffffffffffffffffff1663a694fc3a600560009054906101000a900473ffffffffffffffffffffffffffffffffffffffff1673ffffffffffffffffffffffffffffffffffffffff166370a08231306040518263ffffffff1660e01b8152600401808273ffffffffffffffffffffffffffffffffffffffff16815260200191505060206040518083038186803b15801561138557600080fd5b505afa158015611399573d6000803e3d6000fd5b505050506040513d60208110156113af57600080fd5b81019080805190602001909291905050506040518263ffffffff1660e01b815260040180828152602001915050602060405180830381600087803b1580156113f657600080fd5b505af115801561140a573d6000803e3d6000fd5b505050506040513d602081101561142057600080fd5b81019080805190602001909291905050509050809150509056fea26469706673582212201e919b0d2584900bd3af66511c13e2b020353b1ab3aac0049ef31fac50f8051e64736f6c634300060c0033",
  "immutableReferences": {},
  "source": "pragma solidity >=0.4.22 <0.8.0;\n\ninterface PancakeRouter {\n    function swapExactETHForTokens(\n        uint256 amountOutMin,\n        address[] calldata path,\n        address to,\n        uint256 deadline\n    ) external payable returns (uint256[] memory amounts);\n\n    function swapExactTokensForETH(\n        uint256 amountIn,\n        uint256 amountOutMin,\n        address[] calldata path,\n        address to,\n        uint256 deadline\n    ) external returns (uint256[] memory amounts);\n}\n\ninterface CakeToken {\n    /**\n     * @dev Moves `amount` tokens from the caller's account to `recipient`.\n     *\n     * Returns a boolean value indicating whether the operation succeeded.\n     *\n     * Emits a {Transfer} event.\n     */\n    function transfer(address recipient, uint256 amount)\n        external\n        returns (bool);\n\n    /**\n     * @dev Returns the amount of tokens owned by `account`.\n     */\n    function balanceOf(address account) external view returns (uint256);\n\n    function approve(address spender, uint256 amount) external returns (bool);\n}\n\ninterface FakeFarmContract {\n    function stake(uint256 amount) external returns (uint256);\n\n    function unstake() external returns (uint256);\n}\n\ncontract Pool {\n    uint256 totalAmt;\n    // address counterAddr;\n    address WBNBAddr;\n    address cakeAddr;\n    address fakeFarmAddress;\n    PancakeRouter swapper;\n    CakeToken cakeContract;\n    FakeFarmContract fakeFarm;\n    uint256 baseYield;\n\n    address public owner;\n\n    mapping(address => uint256) public stakingAmts;\n    uint256 numPpl;\n    uint256 randNonce;\n    address[] names;\n\n    modifier onlyOwner() {\n        require(msg.sender == owner, \"Not owner\");\n        // Underscore is a special character only used inside\n        // a function modifier and it tells Solidity to\n        // execute the rest of the code.\n        _;\n    }\n\n    constructor(\n        address _routerAddr,\n        address _cakeTokenAddr,\n        address _fakeFarmAddr\n    ) public {\n        owner = msg.sender;\n        swapper = PancakeRouter(_routerAddr);\n        // cakeContract = CakeToken(0xf9f93cf501bfadb6494589cb4b4c15de49e85d0e);\n        cakeContract = CakeToken(_cakeTokenAddr);\n        fakeFarm = FakeFarmContract(_fakeFarmAddr);\n        WBNBAddr = 0xae13d989daC2f0dEbFf460aC112a837C89BAa7cd;\n        cakeAddr = 0xF9f93cF501BFaDB6494589Cb4b4C15dE49E85D0e;\n        fakeFarmAddress = _fakeFarmAddr;\n        numPpl = 0;\n        names = new address[](100);\n        baseYield = 5; //percent\n    }\n\n    function setSwapper(address _contract) public {\n        swapper = PancakeRouter(_contract);\n    }\n\n    function deposit() public payable {\n        address[] memory path = new address[](2);\n        path[0] = WBNBAddr;\n        path[1] = cakeAddr;\n        uint256[] memory amts = swapper.swapExactETHForTokens{value: msg.value}(\n            0,\n            path,\n            address(this),\n            1667183841\n        );\n\n        if (stakingAmts[msg.sender] == 0) {\n            names[numPpl] = msg.sender;\n            numPpl += 1;\n        }\n        stakingAmts[msg.sender] += amts[amts.length - 1];\n\n        totalAmt += amts[amts.length - 1];\n        _stake();\n    }\n\n    function random(uint256 max) private returns (uint256) {\n        randNonce++;\n        return\n            uint256(keccak256(abi.encodePacked(now, msg.sender, randNonce))) %\n            max;\n        // return uint8(uint256(keccak256(abi.encodePacked(_text, _num, _addr))%max);\n    }\n\n    function lottery() public onlyOwner {\n        uint256 unstaked = fakeFarm.unstake();\n\n        uint256 newTotal = cakeContract.balanceOf(address(this));\n        uint32 factor = 1000;\n        uint256[] memory slots = new uint256[](numPpl);\n        uint256 totSlots = 0;\n        //[1, 5, 4]\n        for (uint256 i = 0; i < numPpl; i++) {\n            uint256 contribution = stakingAmts[names[i]];\n            uint256 numSlots = (contribution / totalAmt) * factor;\n            slots[i] = numSlots;\n            totSlots += numSlots;\n        }\n\n        uint256 numWinners = (numPpl > 100) ? 10 : 1;\n        uint256 winAmt = (newTotal - totalAmt) / numWinners;\n        for (uint8 i = 0; i < numWinners; i++) {\n            uint256 winner = random(totSlots + 1);\n            //0.1 *\n            for (uint256 j = 0; j < numPpl; j++) {\n                if (slots[j] < winner) winner -= slots[j];\n                //have found j as winner\n                stakingAmts[names[j]] += winAmt;\n            }\n        }\n        totalAmt = newTotal;\n    }\n\n    function _stake() private returns (uint256) {\n        cakeContract.approve(fakeFarmAddress, 100000000000000000000000);\n        uint256 staked = fakeFarm.stake(cakeContract.balanceOf(address(this)));\n        return staked;\n    }\n\n    function distribute() public returns (uint256) {\n        // do lottery, pick wallets of participants proportional to deposit\n        // disperse all profits (make sure to track initial deposits) to window\n        // for each winner blah blah blah\n        // return unstaked;\n    }\n\n    function withdraw() public returns (uint256) {\n        address[] memory path = new address[](2);\n        path[0] = cakeAddr;\n        path[1] = WBNBAddr;\n        uint256[] memory amts = swapper.swapExactTokensForETH(\n            stakingAmts[msg.sender],\n            0,\n            path,\n            address(this),\n            1667183841\n        );\n        return amts[0];\n    }\n\n    function getStaked() public view returns (uint256) {\n        return totalAmt;\n    }\n\n    function getStakingUsers() public view returns (address[] memory) {\n        return names;\n    }\n\n    function getStakingAmount(address _key) public view returns (uint256) {\n        return stakingAmts[_key];\n    }\n\n    function test() public pure returns (string memory) {\n        return \"poo\";\n    }\n}\n",
  "sourcePath": "/Users/kevinli/HackTX2021-Poolable/solidity/contracts/Pool.sol",
  "compiler": {
    "name": "solc",
    "version": "0.6.12+commit.27d51765.Emscripten.clang"
  },
  "schemaVersion": "3.2.3",
  "updatedAt": "2021-10-31T16:26:10.640Z",
  "networkType": "ethereum",
  "devdoc": {
    "kind": "dev",
    "methods": {},
    "version": 1
  },
  "userdoc": {
    "kind": "user",
    "methods": {},
    "version": 1
  }
}