{
  "contractName": "Pool",
  "abi": [
    {
      "inputs": [
        {
          "internalType": "address",
          "name": "_routerAddr",
          "type": "address"
        },
        {
          "internalType": "address",
          "name": "_cakeTokenAddr",
          "type": "address"
        },
        {
          "internalType": "address",
          "name": "_fakeFarmAddr",
          "type": "address"
        }
      ],
      "stateMutability": "nonpayable",
      "type": "constructor"
    },
    {
      "inputs": [],
      "name": "owner",
      "outputs": [
        {
          "internalType": "address",
          "name": "",
          "type": "address"
        }
      ],
      "stateMutability": "view",
      "type": "function",
      "constant": true
    },
    {
      "inputs": [
        {
          "internalType": "address",
          "name": "",
          "type": "address"
        }
      ],
      "name": "stakingAmts",
      "outputs": [
        {
          "internalType": "uint256",
          "name": "",
          "type": "uint256"
        }
      ],
      "stateMutability": "view",
      "type": "function",
      "constant": true
    },
    {
      "inputs": [
        {
          "internalType": "address",
          "name": "_contract",
          "type": "address"
        }
      ],
      "name": "setSwapper",
      "outputs": [],
      "stateMutability": "nonpayable",
      "type": "function"
    },
    {
      "inputs": [],
      "name": "deposit",
      "outputs": [],
      "stateMutability": "payable",
      "type": "function",
      "payable": true
    },
    {
      "inputs": [],
      "name": "lottery",
      "outputs": [],
      "stateMutability": "nonpayable",
      "type": "function"
    },
    {
      "inputs": [],
      "name": "distribute",
      "outputs": [
        {
          "internalType": "uint256",
          "name": "",
          "type": "uint256"
        }
      ],
      "stateMutability": "nonpayable",
      "type": "function"
    },
    {
      "inputs": [],
      "name": "test",
      "outputs": [
        {
          "internalType": "string",
          "name": "",
          "type": "string"
        }
      ],
      "stateMutability": "pure",
      "type": "function",
      "constant": true
    },
    {
      "inputs": [],
      "name": "getStaked",
      "outputs": [
        {
          "internalType": "uint256",
          "name": "",
          "type": "uint256"
        }
      ],
      "stateMutability": "view",
      "type": "function",
      "constant": true
    },
    {
      "inputs": [],
      "name": "getStakingUsers",
      "outputs": [
        {
          "internalType": "address[]",
          "name": "",
          "type": "address[]"
        }
      ],
      "stateMutability": "view",
      "type": "function",
      "constant": true
    },
    {
      "inputs": [
        {
          "internalType": "address",
          "name": "_key",
          "type": "address"
        }
      ],
      "name": "getStakingAmount",
      "outputs": [
        {
          "internalType": "uint256",
          "name": "",
          "type": "uint256"
        }
      ],
      "stateMutability": "view",
      "type": "function",
      "constant": true
    }
  ],
  "bytecode": "0x608060405234801561001057600080fd5b506040516112153803806112158339818101604052606081101561003357600080fd5b8101908080519060200190929190805190602001909291908051906020019092919050505033600760006101000a81548173ffffffffffffffffffffffffffffffffffffffff021916908373ffffffffffffffffffffffffffffffffffffffff16021790555082600360006101000a81548173ffffffffffffffffffffffffffffffffffffffff021916908373ffffffffffffffffffffffffffffffffffffffff16021790555081600460006101000a81548173ffffffffffffffffffffffffffffffffffffffff021916908373ffffffffffffffffffffffffffffffffffffffff16021790555080600560006101000a81548173ffffffffffffffffffffffffffffffffffffffff021916908373ffffffffffffffffffffffffffffffffffffffff16021790555073ae13d989dac2f0debff460ac112a837c89baa7cd600160006101000a81548173ffffffffffffffffffffffffffffffffffffffff021916908373ffffffffffffffffffffffffffffffffffffffff16021790555073f9f93cf501bfadb6494589cb4b4c15de49e85d0e600260006101000a81548173ffffffffffffffffffffffffffffffffffffffff021916908373ffffffffffffffffffffffffffffffffffffffff16021790555060006009819055506005600681905550505050610fed806102286000396000f3fe6080604052600436106100915760003560e01c8063ba13a57211610059578063ba13a5721461025e578063c59abf9f14610275578063d0e30db0146102a0578063e4fc6b6d146102aa578063f8a8fd6d146102d557610091565b80631d2673b7146100965780633e97ead31461010257806374363daa146101675780638da5cb5b146101cc5780639c82f2a41461020d575b600080fd5b3480156100a257600080fd5b506100ab610365565b6040518080602001828103825283818151815260200191508051906020019060200280838360005b838110156100ee5780820151818401526020810190506100d3565b505050509050019250505060405180910390f35b34801561010e57600080fd5b506101516004803603602081101561012557600080fd5b81019080803573ffffffffffffffffffffffffffffffffffffffff1690602001909291905050506103f3565b6040518082815260200191505060405180910390f35b34801561017357600080fd5b506101b66004803603602081101561018a57600080fd5b81019080803573ffffffffffffffffffffffffffffffffffffffff16906020019092919050505061040b565b6040518082815260200191505060405180910390f35b3480156101d857600080fd5b506101e1610454565b604051808273ffffffffffffffffffffffffffffffffffffffff16815260200191505060405180910390f35b34801561021957600080fd5b5061025c6004803603602081101561023057600080fd5b81019080803573ffffffffffffffffffffffffffffffffffffffff16906020019092919050505061047a565b005b34801561026a57600080fd5b506102736104be565b005b34801561028157600080fd5b5061028a6108a1565b6040518082815260200191505060405180910390f35b6102a86108aa565b005b3480156102b657600080fd5b506102bf610cd1565b6040518082815260200191505060405180910390f35b3480156102e157600080fd5b506102ea610d82565b6040518080602001828103825283818151815260200191508051906020019080838360005b8381101561032a57808201518184015260208101905061030f565b50505050905090810190601f1680156103575780820380516001836020036101000a031916815260200191505b509250505060405180910390f35b6060600b8054806020026020016040519081016040528092919081815260200182805480156103e957602002820191906000526020600020905b8160009054906101000a900473ffffffffffffffffffffffffffffffffffffffff1673ffffffffffffffffffffffffffffffffffffffff168152602001906001019080831161039f575b5050505050905090565b60086020528060005260406000206000915090505481565b6000600860008373ffffffffffffffffffffffffffffffffffffffff1673ffffffffffffffffffffffffffffffffffffffff168152602001908152602001600020549050919050565b600760009054906101000a900473ffffffffffffffffffffffffffffffffffffffff1681565b80600360006101000a81548173ffffffffffffffffffffffffffffffffffffffff021916908373ffffffffffffffffffffffffffffffffffffffff16021790555050565b600760009054906101000a900473ffffffffffffffffffffffffffffffffffffffff1673ffffffffffffffffffffffffffffffffffffffff163373ffffffffffffffffffffffffffffffffffffffff1614610581576040517f08c379a00000000000000000000000000000000000000000000000000000000081526004018080602001828103825260098152602001807f4e6f74206f776e6572000000000000000000000000000000000000000000000081525060200191505060405180910390fd5b6000600460009054906101000a900473ffffffffffffffffffffffffffffffffffffffff1673ffffffffffffffffffffffffffffffffffffffff166370a08231306040518263ffffffff1660e01b8152600401808273ffffffffffffffffffffffffffffffffffffffff16815260200191505060206040518083038186803b15801561060c57600080fd5b505afa158015610620573d6000803e3d6000fd5b505050506040513d602081101561063657600080fd5b8101908080519060200190929190505050905060006103e89050606060095467ffffffffffffffff8111801561066b57600080fd5b5060405190808252806020026020018201604052801561069a5781602001602082028036833780820191505090505b5090506000805b60095481101561076b57600060086000600b84815481106106be57fe5b9060005260206000200160009054906101000a900473ffffffffffffffffffffffffffffffffffffffff1673ffffffffffffffffffffffffffffffffffffffff1673ffffffffffffffffffffffffffffffffffffffff16815260200190815260200160002054905060008563ffffffff16600054838161073a57fe5b040290508085848151811061074b57fe5b6020026020010181815250508084019350505080806001019150506106a1565b50600060646009541161077f576001610782565b600a5b60ff16905060008160005487038161079657fe5b04905060005b828160ff1610156108985760006107b560018601610dbf565b905060005b60095481101561088957818782815181106107d157fe5b602002602001015110156107f8578681815181106107eb57fe5b6020026020010151820391505b8360086000600b848154811061080a57fe5b9060005260206000200160009054906101000a900473ffffffffffffffffffffffffffffffffffffffff1673ffffffffffffffffffffffffffffffffffffffff1673ffffffffffffffffffffffffffffffffffffffff1681526020019081526020016000206000828254019250508190555080806001019150506107ba565b5050808060010191505061079c565b50505050505050565b60008054905090565b6060600267ffffffffffffffff811180156108c457600080fd5b506040519080825280602002602001820160405280156108f35781602001602082028036833780820191505090505b509050600160009054906101000a900473ffffffffffffffffffffffffffffffffffffffff168160008151811061092657fe5b602002602001019073ffffffffffffffffffffffffffffffffffffffff16908173ffffffffffffffffffffffffffffffffffffffff1681525050600260009054906101000a900473ffffffffffffffffffffffffffffffffffffffff168160018151811061099057fe5b602002602001019073ffffffffffffffffffffffffffffffffffffffff16908173ffffffffffffffffffffffffffffffffffffffff16815250506060600360009054906101000a900473ffffffffffffffffffffffffffffffffffffffff1673ffffffffffffffffffffffffffffffffffffffff16637ff36ab5346000853063635f34e16040518663ffffffff1660e01b815260040180858152602001806020018473ffffffffffffffffffffffffffffffffffffffff168152602001838152602001828103825285818151815260200191508051906020019060200280838360005b83811015610a8e578082015181840152602081019050610a73565b50505050905001955050505050506000604051808303818588803b158015610ab557600080fd5b505af1158015610ac9573d6000803e3d6000fd5b50505050506040513d6000823e3d601f19601f820116820180604052506020811015610af457600080fd5b8101908080516040519392919084640100000000821115610b1457600080fd5b83820191506020820185811115610b2a57600080fd5b8251866020820283011164010000000082111715610b4757600080fd5b8083526020830192505050908051906020019060200280838360005b83811015610b7e578082015181840152602081019050610b63565b5050505090500160405250505090506000600860003373ffffffffffffffffffffffffffffffffffffffff1673ffffffffffffffffffffffffffffffffffffffff168152602001908152602001600020541415610c405733600b60095481548110610be557fe5b9060005260206000200160006101000a81548173ffffffffffffffffffffffffffffffffffffffff021916908373ffffffffffffffffffffffffffffffffffffffff1602179055506009600081548092919060010191905055505b80600081518110610c4d57fe5b6020026020010151600860003373ffffffffffffffffffffffffffffffffffffffff1673ffffffffffffffffffffffffffffffffffffffff1681526020019081526020016000206000828254019250508190555080600081518110610cae57fe5b60200260200101516000808282540192505081905550610ccc610e38565b505050565b600080600560009054906101000a900473ffffffffffffffffffffffffffffffffffffffff1673ffffffffffffffffffffffffffffffffffffffff16632def66206040518163ffffffff1660e01b8152600401602060405180830381600087803b158015610d3e57600080fd5b505af1158015610d52573d6000803e3d6000fd5b505050506040513d6020811015610d6857600080fd5b810190808051906020019092919050505090508091505090565b60606040518060400160405280600381526020017f706f6f0000000000000000000000000000000000000000000000000000000000815250905090565b6000600a60008154809291906001019190505550814233600a54604051602001808481526020018373ffffffffffffffffffffffffffffffffffffffff1660601b815260140182815260200193505050506040516020818303038152906040528051906020012060001c81610e3057fe5b069050919050565b600080600560009054906101000a900473ffffffffffffffffffffffffffffffffffffffff1673ffffffffffffffffffffffffffffffffffffffff1663a694fc3a600460009054906101000a900473ffffffffffffffffffffffffffffffffffffffff1673ffffffffffffffffffffffffffffffffffffffff166370a08231306040518263ffffffff1660e01b8152600401808273ffffffffffffffffffffffffffffffffffffffff16815260200191505060206040518083038186803b158015610f0257600080fd5b505afa158015610f16573d6000803e3d6000fd5b505050506040513d6020811015610f2c57600080fd5b81019080805190602001909291905050506040518263ffffffff1660e01b815260040180828152602001915050602060405180830381600087803b158015610f7357600080fd5b505af1158015610f87573d6000803e3d6000fd5b505050506040513d6020811015610f9d57600080fd5b81019080805190602001909291905050509050809150509056fea26469706673582212209db81bb5d0f6bc76c37e7d1b6a04f13a67f6e6a1094c82cf15947960e60563d164736f6c634300060c0033",
  "immutableReferences": {},
  "source": "pragma solidity >=0.4.22 <0.8.0;\n\ninterface PancakeRouter {\n    function swapExactETHForTokens(\n        uint256 amountOutMin,\n        address[] calldata path,\n        address to,\n        uint256 deadline\n    ) external payable returns (uint256[] memory amounts);\n\n    function swapExactTokensForETH(\n        uint256 amountOutMin,\n        address[] calldata path,\n        address to,\n        uint256 deadline\n    ) external payable returns (uint256[] memory amounts);\n}\n\ninterface CakeToken {\n    /**\n     * @dev Moves `amount` tokens from the caller's account to `recipient`.\n     *\n     * Returns a boolean value indicating whether the operation succeeded.\n     *\n     * Emits a {Transfer} event.\n     */\n    function transfer(address recipient, uint256 amount)\n    external\n    returns (bool);\n\n    /**\n     * @dev Returns the amount of tokens owned by `account`.\n     */\n    function balanceOf(address account) external view returns (uint256);\n}\n\ninterface FakeFarmContract {\n    function stake(uint256 amount) external returns (uint256);\n\n    function unstake() external returns (uint256);\n}\n\ncontract Pool {\n    uint256 totalAmt;\n    // address counterAddr;\n    address WBNBAddr;\n    address cakeAddr;\n    PancakeRouter swapper;\n    CakeToken cakeContract;\n    FakeFarmContract fakeFarm;\n    uint256 baseYield;\n\n    address public owner;\n\n    mapping(address => uint256) public stakingAmts;\n    uint256 numPpl;\n    uint256 randNonce;\n    address[] names;\n\n\n    modifier onlyOwner() {\n        require(msg.sender == owner, \"Not owner\");\n        // Underscore is a special character only used inside\n        // a function modifier and it tells Solidity to\n        // execute the rest of the code.\n        _;\n    }\n\n    constructor(\n        address _routerAddr,\n        address _cakeTokenAddr,\n        address _fakeFarmAddr\n    ) public {\n        owner = msg.sender;\n        swapper = PancakeRouter(_routerAddr);\n        // cakeContract = CakeToken(0xf9f93cf501bfadb6494589cb4b4c15de49e85d0e);\n        cakeContract = CakeToken(_cakeTokenAddr);\n        fakeFarm = FakeFarmContract(_fakeFarmAddr);\n        WBNBAddr = 0xae13d989daC2f0dEbFf460aC112a837C89BAa7cd;\n        cakeAddr = 0xF9f93cF501BFaDB6494589Cb4b4C15dE49E85D0e;\n        numPpl = 0;\n        baseYield = 5;\n        //percent\n    }\n\n    function setSwapper(address _contract) public {\n        swapper = PancakeRouter(_contract);\n    }\n\n    function deposit() public payable {\n        address[] memory path = new address[](2);\n        path[0] = WBNBAddr;\n        path[1] = cakeAddr;\n        uint256[] memory amts = swapper.swapExactETHForTokens{value : msg.value}(\n            0,\n            path,\n            address(this),\n            1667183841\n        );\n\n        //increase user's amt by x cake units\n\n        // if(stakingAmts[msg.sender] == null){\n\n        // } else{\n        if (stakingAmts[msg.sender] == 0) {\n            names[numPpl] = msg.sender;\n            numPpl++;\n        }\n        stakingAmts[msg.sender] += amts[0];\n\n        totalAmt += amts[0];\n        // cakeContract.transfer(recipient, amount);\n        // cakeContract.transfer(recipient, amount);\n        _stake();\n    }\n\n    function random(uint256 max) private returns (uint256) {\n        randNonce++;\n        return uint256(keccak256(abi.encodePacked(now,\n            msg.sender,\n            randNonce))) % max;\n        // return uint8(uint256(keccak256(abi.encodePacked(_text, _num, _addr))%max);\n    }\n\n    function lottery() public onlyOwner {\n\n        uint256 newTotal = cakeContract.balanceOf(address(this));\n        uint32 factor = 1000;\n        uint256[] memory slots = new uint256[](numPpl);\n        uint256 totSlots = 0;\n        //[1, 5, 4]\n        for (uint256 i = 0; i < numPpl; i++) {\n            uint256 contribution = stakingAmts[names[i]];\n            uint256 numSlots = (contribution / totalAmt) * factor;\n            slots[i] = numSlots;\n            totSlots += numSlots;\n        }\n\n        uint256 numWinners = (numPpl > 100) ? 10 : 1;\n        uint256 winAmt = (newTotal - totalAmt) / numWinners;\n        for (uint8 i = 0; i < numWinners; i++) {\n            uint256 winner = random(totSlots + 1);\n            //0.1 *\n            for (uint256 j = 0; j < numPpl; j++) {\n                if (slots[j] < winner) winner -= slots[j];\n                //have found j as winner\n                stakingAmts[names[j]] += winAmt;\n            }\n        }\n    }\n\n    function _stake() private returns (uint256) {\n        uint256 staked = fakeFarm.stake(cakeContract.balanceOf(address(this)));\n        return staked;\n    }\n\n    function distribute() public returns (uint256) {\n        uint256 unstaked = fakeFarm.unstake();\n        // do lottery, pick wallets of participants proportional to deposit\n\n        // disperse all profits (make sure to track initial deposits) to window\n        // for each winner blah blah blah\n        return unstaked;\n    }\n\n    function test() public pure returns (string memory) {\n        return \"poo\";\n    }\n\n    function getStaked() public view returns (uint256) {\n        return totalAmt;\n    }\n\n    function getStakingUsers() public view returns (address[] memory) {\n        return names;\n    }\n\n    function getStakingAmount(address _key) public view returns (uint256) {\n        return stakingAmts[_key];\n    }\n}\n",
  "sourcePath": "/home/pranavr/blockchain/HackTX2021-Poolable/solidity/contracts/Pool.sol",
  "compiler": {
    "name": "solc",
    "version": "0.6.12+commit.27d51765.Emscripten.clang"
  },
  "schemaVersion": "3.4.3",
  "updatedAt": "2021-10-31T14:24:24.282Z",
  "networkType": "ethereum",
  "devdoc": {
    "kind": "dev",
    "methods": {},
    "version": 1
  },
  "userdoc": {
    "kind": "user",
    "methods": {},
    "version": 1
  }
}