{
  "contractName": "FakeFarm",
  "abi": [
    {
      "inputs": [
        {
          "internalType": "address",
          "name": "_cakeAddr",
          "type": "address"
        }
      ],
      "stateMutability": "nonpayable",
      "type": "constructor"
    },
    {
      "inputs": [],
      "name": "stake",
      "outputs": [],
      "stateMutability": "payable",
      "type": "function",
      "payable": true
    }
  ],
  "bytecode": "0x608060405234801561001057600080fd5b506040516101d33803806101d38339818101604052602081101561003357600080fd5b8101908080519060200190929190505050806000806101000a81548173ffffffffffffffffffffffffffffffffffffffff021916908373ffffffffffffffffffffffffffffffffffffffff1602179055505061013f806100946000396000f3fe60806040526004361061001e5760003560e01c80633a4b66f114610023575b600080fd5b61002b61002d565b005b60008054906101000a900473ffffffffffffffffffffffffffffffffffffffff1673ffffffffffffffffffffffffffffffffffffffff1663a9059cbb336005346006028161007757fe5b046040518363ffffffff1660e01b8152600401808373ffffffffffffffffffffffffffffffffffffffff16815260200182815260200192505050602060405180830381600087803b1580156100cb57600080fd5b505af11580156100df573d6000803e3d6000fd5b505050506040513d60208110156100f557600080fd5b81019080805190602001909291905050505056fea2646970667358221220111b22a2593cf0089c5883b8f24a0f23b112fb1e4f734c3619b3373ad43f21ec64736f6c634300060c0033",
  "immutableReferences": {},
  "source": "// SPDX-License-Identifier: MIT\npragma solidity >=0.4.22 <0.8.0;\n\ninterface CakeToken {\n    /**\n     * @dev Moves `amount` tokens from the caller's account to `recipient`.\n     *\n     * Returns a boolean value indicating whether the operation succeeded.\n     *\n     * Emits a {Transfer} event.\n     */\n    function transfer(address recipient, uint256 amount)\n        external\n        returns (bool);\n}\n\ncontract FakeFarm {\n    CakeToken cakeContract;\n\n    constructor(address _cakeAddr) public {\n        cakeContract = CakeToken(_cakeAddr);\n    }\n\n    function stake() public payable {\n        cakeContract.transfer(msg.sender, uint256((6 * msg.value) / 5));\n    }\n}\n",
  "sourcePath": "/Users/kevinli/HackTX2021-Poolable/contracts/FakeFarm.sol",
  "compiler": {
    "name": "solc",
    "version": "0.6.12+commit.27d51765.Emscripten.clang"
  },
  "schemaVersion": "3.2.3",
  "updatedAt": "2021-10-31T06:36:52.338Z",
  "networkType": "ethereum",
  "devdoc": {
    "kind": "dev",
    "methods": {},
    "version": 1
  },
  "userdoc": {
    "kind": "user",
    "methods": {},
    "version": 1
  }
}