{
  "contractName": "Pool",
  "abi": [
    {
      "inputs": [
        {
          "internalType": "address",
          "name": "_routerAddr",
          "type": "address"
        },
        {
          "internalType": "address",
          "name": "_cakeTokenAddr",
          "type": "address"
        },
        {
          "internalType": "address",
          "name": "_fakeFarmAddr",
          "type": "address"
        }
      ],
      "stateMutability": "nonpayable",
      "type": "constructor"
    },
    {
      "inputs": [],
      "name": "owner",
      "outputs": [
        {
          "internalType": "address",
          "name": "",
          "type": "address"
        }
      ],
      "stateMutability": "view",
      "type": "function",
      "constant": true
    },
    {
      "inputs": [
        {
          "internalType": "address",
          "name": "",
          "type": "address"
        }
      ],
      "name": "stakingAmts",
      "outputs": [
        {
          "internalType": "uint256",
          "name": "",
          "type": "uint256"
        }
      ],
      "stateMutability": "view",
      "type": "function",
      "constant": true
    },
    {
      "inputs": [
        {
          "internalType": "address",
          "name": "_contract",
          "type": "address"
        }
      ],
      "name": "setSwapper",
      "outputs": [],
      "stateMutability": "nonpayable",
      "type": "function"
    },
    {
      "inputs": [],
      "name": "deposit",
      "outputs": [],
      "stateMutability": "payable",
      "type": "function",
      "payable": true
    },
    {
      "inputs": [],
      "name": "lottery",
      "outputs": [],
      "stateMutability": "nonpayable",
      "type": "function"
    },
    {
      "inputs": [],
      "name": "distribute",
      "outputs": [
        {
          "internalType": "uint256",
          "name": "",
          "type": "uint256"
        }
      ],
      "stateMutability": "nonpayable",
      "type": "function"
    },
    {
      "inputs": [],
      "name": "test",
      "outputs": [
        {
          "internalType": "string",
          "name": "",
          "type": "string"
        }
      ],
      "stateMutability": "pure",
      "type": "function",
      "constant": true
    }
  ],
  "bytecode": "0x608060405234801561001057600080fd5b506040516110183803806110188339818101604052606081101561003357600080fd5b8101908080519060200190929190805190602001909291908051906020019092919050505033600760006101000a81548173ffffffffffffffffffffffffffffffffffffffff021916908373ffffffffffffffffffffffffffffffffffffffff16021790555082600360006101000a81548173ffffffffffffffffffffffffffffffffffffffff021916908373ffffffffffffffffffffffffffffffffffffffff16021790555081600460006101000a81548173ffffffffffffffffffffffffffffffffffffffff021916908373ffffffffffffffffffffffffffffffffffffffff16021790555080600560006101000a81548173ffffffffffffffffffffffffffffffffffffffff021916908373ffffffffffffffffffffffffffffffffffffffff16021790555073ae13d989dac2f0debff460ac112a837c89baa7cd600160006101000a81548173ffffffffffffffffffffffffffffffffffffffff021916908373ffffffffffffffffffffffffffffffffffffffff16021790555073f9f93cf501bfadb6494589cb4b4c15de49e85d0e600260006101000a81548173ffffffffffffffffffffffffffffffffffffffff021916908373ffffffffffffffffffffffffffffffffffffffff16021790555060006009819055506005600681905550505050610df0806102286000396000f3fe6080604052600436106100705760003560e01c8063ba13a5721161004e578063ba13a5721461016c578063d0e30db014610183578063e4fc6b6d1461018d578063f8a8fd6d146101b857610070565b80633e97ead3146100755780638da5cb5b146100da5780639c82f2a41461011b575b600080fd5b34801561008157600080fd5b506100c46004803603602081101561009857600080fd5b81019080803573ffffffffffffffffffffffffffffffffffffffff169060200190929190505050610248565b6040518082815260200191505060405180910390f35b3480156100e657600080fd5b506100ef610260565b604051808273ffffffffffffffffffffffffffffffffffffffff16815260200191505060405180910390f35b34801561012757600080fd5b5061016a6004803603602081101561013e57600080fd5b81019080803573ffffffffffffffffffffffffffffffffffffffff169060200190929190505050610286565b005b34801561017857600080fd5b506101816102ca565b005b61018b6106ad565b005b34801561019957600080fd5b506101a2610ad4565b6040518082815260200191505060405180910390f35b3480156101c457600080fd5b506101cd610b85565b6040518080602001828103825283818151815260200191508051906020019080838360005b8381101561020d5780820151818401526020810190506101f2565b50505050905090810190601f16801561023a5780820380516001836020036101000a031916815260200191505b509250505060405180910390f35b60086020528060005260406000206000915090505481565b600760009054906101000a900473ffffffffffffffffffffffffffffffffffffffff1681565b80600360006101000a81548173ffffffffffffffffffffffffffffffffffffffff021916908373ffffffffffffffffffffffffffffffffffffffff16021790555050565b600760009054906101000a900473ffffffffffffffffffffffffffffffffffffffff1673ffffffffffffffffffffffffffffffffffffffff163373ffffffffffffffffffffffffffffffffffffffff161461038d576040517f08c379a00000000000000000000000000000000000000000000000000000000081526004018080602001828103825260098152602001807f4e6f74206f776e6572000000000000000000000000000000000000000000000081525060200191505060405180910390fd5b6000600460009054906101000a900473ffffffffffffffffffffffffffffffffffffffff1673ffffffffffffffffffffffffffffffffffffffff166370a08231306040518263ffffffff1660e01b8152600401808273ffffffffffffffffffffffffffffffffffffffff16815260200191505060206040518083038186803b15801561041857600080fd5b505afa15801561042c573d6000803e3d6000fd5b505050506040513d602081101561044257600080fd5b8101908080519060200190929190505050905060006103e89050606060095467ffffffffffffffff8111801561047757600080fd5b506040519080825280602002602001820160405280156104a65781602001602082028036833780820191505090505b5090506000805b60095481101561057757600060086000600b84815481106104ca57fe5b9060005260206000200160009054906101000a900473ffffffffffffffffffffffffffffffffffffffff1673ffffffffffffffffffffffffffffffffffffffff1673ffffffffffffffffffffffffffffffffffffffff16815260200190815260200160002054905060008563ffffffff16600054838161054657fe5b040290508085848151811061055757fe5b6020026020010181815250508084019350505080806001019150506104ad565b50600060646009541161058b57600161058e565b600a5b60ff1690506000816000548703816105a257fe5b04905060005b828160ff1610156106a45760006105c160018601610bc2565b905060005b60095481101561069557818782815181106105dd57fe5b60200260200101511015610604578681815181106105f757fe5b6020026020010151820391505b8360086000600b848154811061061657fe5b9060005260206000200160009054906101000a900473ffffffffffffffffffffffffffffffffffffffff1673ffffffffffffffffffffffffffffffffffffffff1673ffffffffffffffffffffffffffffffffffffffff1681526020019081526020016000206000828254019250508190555080806001019150506105c6565b505080806001019150506105a8565b50505050505050565b6060600267ffffffffffffffff811180156106c757600080fd5b506040519080825280602002602001820160405280156106f65781602001602082028036833780820191505090505b509050600160009054906101000a900473ffffffffffffffffffffffffffffffffffffffff168160008151811061072957fe5b602002602001019073ffffffffffffffffffffffffffffffffffffffff16908173ffffffffffffffffffffffffffffffffffffffff1681525050600260009054906101000a900473ffffffffffffffffffffffffffffffffffffffff168160018151811061079357fe5b602002602001019073ffffffffffffffffffffffffffffffffffffffff16908173ffffffffffffffffffffffffffffffffffffffff16815250506060600360009054906101000a900473ffffffffffffffffffffffffffffffffffffffff1673ffffffffffffffffffffffffffffffffffffffff16637ff36ab5346000853063635f34e16040518663ffffffff1660e01b815260040180858152602001806020018473ffffffffffffffffffffffffffffffffffffffff168152602001838152602001828103825285818151815260200191508051906020019060200280838360005b83811015610891578082015181840152602081019050610876565b50505050905001955050505050506000604051808303818588803b1580156108b857600080fd5b505af11580156108cc573d6000803e3d6000fd5b50505050506040513d6000823e3d601f19601f8201168201806040525060208110156108f757600080fd5b810190808051604051939291908464010000000082111561091757600080fd5b8382019150602082018581111561092d57600080fd5b825186602082028301116401000000008211171561094a57600080fd5b8083526020830192505050908051906020019060200280838360005b83811015610981578082015181840152602081019050610966565b5050505090500160405250505090506000600860003373ffffffffffffffffffffffffffffffffffffffff1673ffffffffffffffffffffffffffffffffffffffff168152602001908152602001600020541415610a435733600b600954815481106109e857fe5b9060005260206000200160006101000a81548173ffffffffffffffffffffffffffffffffffffffff021916908373ffffffffffffffffffffffffffffffffffffffff1602179055506009600081548092919060010191905055505b80600081518110610a5057fe5b6020026020010151600860003373ffffffffffffffffffffffffffffffffffffffff1673ffffffffffffffffffffffffffffffffffffffff1681526020019081526020016000206000828254019250508190555080600081518110610ab157fe5b60200260200101516000808282540192505081905550610acf610c3b565b505050565b600080600560009054906101000a900473ffffffffffffffffffffffffffffffffffffffff1673ffffffffffffffffffffffffffffffffffffffff16632def66206040518163ffffffff1660e01b8152600401602060405180830381600087803b158015610b4157600080fd5b505af1158015610b55573d6000803e3d6000fd5b505050506040513d6020811015610b6b57600080fd5b810190808051906020019092919050505090508091505090565b60606040518060400160405280600381526020017f706f6f0000000000000000000000000000000000000000000000000000000000815250905090565b6000600a60008154809291906001019190505550814233600a54604051602001808481526020018373ffffffffffffffffffffffffffffffffffffffff1660601b815260140182815260200193505050506040516020818303038152906040528051906020012060001c81610c3357fe5b069050919050565b600080600560009054906101000a900473ffffffffffffffffffffffffffffffffffffffff1673ffffffffffffffffffffffffffffffffffffffff1663a694fc3a600460009054906101000a900473ffffffffffffffffffffffffffffffffffffffff1673ffffffffffffffffffffffffffffffffffffffff166370a08231306040518263ffffffff1660e01b8152600401808273ffffffffffffffffffffffffffffffffffffffff16815260200191505060206040518083038186803b158015610d0557600080fd5b505afa158015610d19573d6000803e3d6000fd5b505050506040513d6020811015610d2f57600080fd5b81019080805190602001909291905050506040518263ffffffff1660e01b815260040180828152602001915050602060405180830381600087803b158015610d7657600080fd5b505af1158015610d8a573d6000803e3d6000fd5b505050506040513d6020811015610da057600080fd5b81019080805190602001909291905050509050809150509056fea26469706673582212204967ac5e3746b153a548dadd18a9734a7aa858e7596ae6083c65d4902a2825da64736f6c634300060c0033",
  "immutableReferences": {},
  "source": "pragma solidity >=0.4.22 <0.8.0;\n\ninterface PancakeRouter {\n    function swapExactETHForTokens(\n        uint256 amountOutMin,\n        address[] calldata path,\n        address to,\n        uint256 deadline\n    ) external payable returns (uint256[] memory amounts);\n\n    function swapExactTokensForETH(\n        uint256 amountOutMin,\n        address[] calldata path,\n        address to,\n        uint256 deadline\n    ) external payable returns (uint256[] memory amounts);\n}\n\ninterface CakeToken {\n    /**\n     * @dev Moves `amount` tokens from the caller's account to `recipient`.\n     *\n     * Returns a boolean value indicating whether the operation succeeded.\n     *\n     * Emits a {Transfer} event.\n     */\n    function transfer(address recipient, uint256 amount)\n        external\n        returns (bool);\n\n    /**\n     * @dev Returns the amount of tokens owned by `account`.\n     */\n    function balanceOf(address account) external view returns (uint256);\n}\n\ninterface FakeFarmContract {\n    function stake(uint256 amount) external returns (uint256);\n\n    function unstake() external returns (uint256);\n}\n\ncontract Pool {\n    uint256 totalAmt;\n    // address counterAddr;\n    address WBNBAddr;\n    address cakeAddr;\n    PancakeRouter swapper;\n    CakeToken cakeContract;\n    FakeFarmContract fakeFarm;\n    uint256 baseYield;\n\n    address public owner;\n\n    mapping(address => uint256) public stakingAmts;\n    uint256 numPpl;\n    uint256 randNonce;\n    address[] names;\n\n\n    modifier onlyOwner() {\n        require(msg.sender == owner, \"Not owner\");\n        // Underscore is a special character only used inside\n        // a function modifier and it tells Solidity to\n        // execute the rest of the code.\n        _;\n    }\n\n    constructor(\n        address _routerAddr,\n        address _cakeTokenAddr,\n        address _fakeFarmAddr\n    ) public {\n        owner = msg.sender;\n        swapper = PancakeRouter(_routerAddr);\n        // cakeContract = CakeToken(0xf9f93cf501bfadb6494589cb4b4c15de49e85d0e);\n        cakeContract = CakeToken(_cakeTokenAddr);\n        fakeFarm = FakeFarmContract(_fakeFarmAddr);\n        WBNBAddr = 0xae13d989daC2f0dEbFf460aC112a837C89BAa7cd;\n        cakeAddr = 0xF9f93cF501BFaDB6494589Cb4b4C15dE49E85D0e;\n        numPpl = 0;\n        baseYield = 5; //percent\n    }\n\n    function setSwapper(address _contract) public {\n        swapper = PancakeRouter(_contract);\n    }\n\n    function deposit() public payable {\n        address[] memory path = new address[](2);\n        path[0] = WBNBAddr;\n        path[1] = cakeAddr;\n        uint256[] memory amts = swapper.swapExactETHForTokens{value: msg.value}(\n            0,\n            path,\n            address(this),\n            1667183841\n        );\n\n        //increase user's amt by x cake units\n\n        // if(stakingAmts[msg.sender] == null){\n\n        // } else{\n        if(stakingAmts[msg.sender] == 0){\n            names[numPpl] = msg.sender;\n            numPpl++;\n        }\n        stakingAmts[msg.sender] += amts[0];\n        \n        totalAmt += amts[0];\n        // cakeContract.transfer(recipient, amount);\n        // cakeContract.transfer(recipient, amount);\n        _stake();\n    }\n\n    function random(uint256 max) private returns (uint256) {\n        randNonce++; \n        return uint256(keccak256(abi.encodePacked(now,\n                                                msg.sender,\n                                                randNonce))) % max;\n        // return uint8(uint256(keccak256(abi.encodePacked(_text, _num, _addr))%max);\n    }\n\n    function lottery() public onlyOwner {\n\n        uint256 newTotal = cakeContract.balanceOf(address(this));\n        uint32 factor = 1000;\n        uint256[] memory slots = new uint256[](numPpl);\n        uint256 totSlots = 0;\n        //[1, 5, 4] \n        for(uint256 i = 0; i<numPpl; i++){\n            uint256 contribution = stakingAmts[names[i]];\n            uint256 numSlots = (contribution / totalAmt) * factor;\n            slots[i] = numSlots;\n            totSlots += numSlots;\n        }\n\n        uint256 numWinners = (numPpl > 100) ? 10 : 1;\n        uint256 winAmt = (newTotal - totalAmt) / numWinners;\n        for(uint8 i = 0; i<numWinners; i++){\n            uint256 winner = random(totSlots + 1);\n            //0.1 * \n            for(uint256 j=0; j < numPpl; j++){\n                if(slots[j] < winner) winner -= slots[j];\n                //have found j as winner\n                stakingAmts[names[j]] += winAmt;\n            }\n        }\n    }\n\n    function _stake() private returns (uint256) {\n        uint256 staked = fakeFarm.stake(cakeContract.balanceOf(address(this)));\n        return staked;\n    }\n\n    function distribute() public returns (uint256) {\n        uint256 unstaked = fakeFarm.unstake();\n        // do lottery, pick wallets of participants proportional to deposit\n        \n        // disperse all profits (make sure to track initial deposits) to window\n        // for each winner blah blah blah\n        return unstaked;\n    }\n\n    function test() public pure returns (string memory) {\n        return \"poo\";\n    }\n}\n",
  "sourcePath": "/home/harsha/Desktop/prjs/HackTX2021-Poolable/contracts/Pool.sol",
  "compiler": {
    "name": "solc",
    "version": "0.6.12+commit.27d51765.Emscripten.clang"
  },
  "schemaVersion": "3.4.3",
  "updatedAt": "2021-10-31T08:25:19.277Z",
  "networkType": "ethereum",
  "devdoc": {
    "kind": "dev",
    "methods": {},
    "version": 1
  },
  "userdoc": {
    "kind": "user",
    "methods": {},
    "version": 1
  }
}