{
  "contractName": "Pool",
  "abi": [
    {
      "inputs": [
        {
          "internalType": "address",
          "name": "_routerAddr",
          "type": "address"
        },
        {
          "internalType": "address",
          "name": "_cakeTokenAddr",
          "type": "address"
        },
        {
          "internalType": "address",
          "name": "_fakeFarmAddr",
          "type": "address"
        }
      ],
      "stateMutability": "nonpayable",
      "type": "constructor"
    },
    {
      "inputs": [],
      "name": "owner",
      "outputs": [
        {
          "internalType": "address",
          "name": "",
          "type": "address"
        }
      ],
      "stateMutability": "view",
      "type": "function"
    },
    {
      "inputs": [
        {
          "internalType": "address",
          "name": "",
          "type": "address"
        }
      ],
      "name": "stakingAmts",
      "outputs": [
        {
          "internalType": "uint256",
          "name": "",
          "type": "uint256"
        }
      ],
      "stateMutability": "view",
      "type": "function"
    },
    {
      "inputs": [
        {
          "internalType": "address",
          "name": "_contract",
          "type": "address"
        }
      ],
      "name": "setSwapper",
      "outputs": [],
      "stateMutability": "nonpayable",
      "type": "function"
    },
    {
      "inputs": [],
      "name": "deposit",
      "outputs": [],
      "stateMutability": "payable",
      "type": "function"
    },
    {
      "inputs": [],
      "name": "distribute",
      "outputs": [
        {
          "internalType": "uint256",
          "name": "",
          "type": "uint256"
        }
      ],
      "stateMutability": "nonpayable",
      "type": "function"
    },
    {
      "inputs": [],
      "name": "test",
      "outputs": [
        {
          "internalType": "string",
          "name": "",
          "type": "string"
        }
      ],
      "stateMutability": "pure",
      "type": "function"
    }
  ],
  "bytecode": "0x608060405234801561001057600080fd5b50604051610a53380380610a538339818101604052606081101561003357600080fd5b8101908080519060200190929190805190602001909291908051906020019092919050505033600860006101000a81548173ffffffffffffffffffffffffffffffffffffffff021916908373ffffffffffffffffffffffffffffffffffffffff16021790555082600460006101000a81548173ffffffffffffffffffffffffffffffffffffffff021916908373ffffffffffffffffffffffffffffffffffffffff16021790555081600560006101000a81548173ffffffffffffffffffffffffffffffffffffffff021916908373ffffffffffffffffffffffffffffffffffffffff16021790555080600660006101000a81548173ffffffffffffffffffffffffffffffffffffffff021916908373ffffffffffffffffffffffffffffffffffffffff16021790555073ae13d989dac2f0debff460ac112a837c89baa7cd600260006101000a81548173ffffffffffffffffffffffffffffffffffffffff021916908373ffffffffffffffffffffffffffffffffffffffff16021790555073f9f93cf501bfadb6494589cb4b4c15de49e85d0e600360006101000a81548173ffffffffffffffffffffffffffffffffffffffff021916908373ffffffffffffffffffffffffffffffffffffffff1602179055506000600a81905550600560078190555050505061082b806102286000396000f3fe6080604052600436106100555760003560e01c80633e97ead31461005a5780638da5cb5b146100bf5780639c82f2a414610100578063d0e30db014610151578063e4fc6b6d1461015b578063f8a8fd6d14610186575b600080fd5b34801561006657600080fd5b506100a96004803603602081101561007d57600080fd5b81019080803573ffffffffffffffffffffffffffffffffffffffff169060200190929190505050610216565b6040518082815260200191505060405180910390f35b3480156100cb57600080fd5b506100d461022e565b604051808273ffffffffffffffffffffffffffffffffffffffff16815260200191505060405180910390f35b34801561010c57600080fd5b5061014f6004803603602081101561012357600080fd5b81019080803573ffffffffffffffffffffffffffffffffffffffff169060200190929190505050610254565b005b610159610298565b005b34801561016757600080fd5b50610170610588565b6040518082815260200191505060405180910390f35b34801561019257600080fd5b5061019b610639565b6040518080602001828103825283818151815260200191508051906020019080838360005b838110156101db5780820151818401526020810190506101c0565b50505050905090810190601f1680156102085780820380516001836020036101000a031916815260200191505b509250505060405180910390f35b60096020528060005260406000206000915090505481565b600860009054906101000a900473ffffffffffffffffffffffffffffffffffffffff1681565b80600460006101000a81548173ffffffffffffffffffffffffffffffffffffffff021916908373ffffffffffffffffffffffffffffffffffffffff16021790555050565b6060600267ffffffffffffffff811180156102b257600080fd5b506040519080825280602002602001820160405280156102e15781602001602082028036833780820191505090505b509050600260009054906101000a900473ffffffffffffffffffffffffffffffffffffffff168160008151811061031457fe5b602002602001019073ffffffffffffffffffffffffffffffffffffffff16908173ffffffffffffffffffffffffffffffffffffffff1681525050600360009054906101000a900473ffffffffffffffffffffffffffffffffffffffff168160018151811061037e57fe5b602002602001019073ffffffffffffffffffffffffffffffffffffffff16908173ffffffffffffffffffffffffffffffffffffffff16815250506060600460009054906101000a900473ffffffffffffffffffffffffffffffffffffffff1673ffffffffffffffffffffffffffffffffffffffff16637ff36ab5346000853063635f34e16040518663ffffffff1660e01b815260040180858152602001806020018473ffffffffffffffffffffffffffffffffffffffff168152602001838152602001828103825285818151815260200191508051906020019060200280838360005b8381101561047c578082015181840152602081019050610461565b50505050905001955050505050506000604051808303818588803b1580156104a357600080fd5b505af11580156104b7573d6000803e3d6000fd5b50505050506040513d6000823e3d601f19601f8201168201806040525060208110156104e257600080fd5b810190808051604051939291908464010000000082111561050257600080fd5b8382019150602082018581111561051857600080fd5b825186602082028301116401000000008211171561053557600080fd5b8083526020830192505050908051906020019060200280838360005b8381101561056c578082015181840152602081019050610551565b505050509050016040525050509050610583610676565b505050565b600080600660009054906101000a900473ffffffffffffffffffffffffffffffffffffffff1673ffffffffffffffffffffffffffffffffffffffff16632def66206040518163ffffffff1660e01b8152600401602060405180830381600087803b1580156105f557600080fd5b505af1158015610609573d6000803e3d6000fd5b505050506040513d602081101561061f57600080fd5b810190808051906020019092919050505090508091505090565b60606040518060400160405280600381526020017f706f6f0000000000000000000000000000000000000000000000000000000000815250905090565b600080600660009054906101000a900473ffffffffffffffffffffffffffffffffffffffff1673ffffffffffffffffffffffffffffffffffffffff1663a694fc3a600560009054906101000a900473ffffffffffffffffffffffffffffffffffffffff1673ffffffffffffffffffffffffffffffffffffffff166370a08231306040518263ffffffff1660e01b8152600401808273ffffffffffffffffffffffffffffffffffffffff16815260200191505060206040518083038186803b15801561074057600080fd5b505afa158015610754573d6000803e3d6000fd5b505050506040513d602081101561076a57600080fd5b81019080805190602001909291905050506040518263ffffffff1660e01b815260040180828152602001915050602060405180830381600087803b1580156107b157600080fd5b505af11580156107c5573d6000803e3d6000fd5b505050506040513d60208110156107db57600080fd5b81019080805190602001909291905050509050809150509056fea2646970667358221220e03cad33a26325d62f94df853500eaa5f4da12b9cdf15a83098f3a9eedfd54e564736f6c634300060c0033",
  "immutableReferences": {},
  "source": "pragma solidity >=0.4.22 <0.8.0;\n\ninterface PancakeRouter {\n    function swapExactETHForTokens(\n        uint256 amountOutMin,\n        address[] calldata path,\n        address to,\n        uint256 deadline\n    ) external payable returns (uint256[] memory amounts);\n\n    function swapExactTokensForETH(\n        uint256 amountOutMin,\n        address[] calldata path,\n        address to,\n        uint256 deadline\n    ) external payable returns (uint256[] memory amounts);\n}\n\ninterface CakeToken {\n    /**\n     * @dev Moves `amount` tokens from the caller's account to `recipient`.\n     *\n     * Returns a boolean value indicating whether the operation succeeded.\n     *\n     * Emits a {Transfer} event.\n     */\n    function transfer(address recipient, uint256 amount)\n        external\n        returns (bool);\n\n    /**\n     * @dev Returns the amount of tokens owned by `account`.\n     */\n    function balanceOf(address account) external view returns (uint256);\n}\n\ninterface FakeFarmContract {\n    function stake(uint256 amount) external returns (uint256);\n\n    function unstake() external returns (uint256);\n}\n\ncontract Pool {\n    uint256 totalAmt;\n    address counterAddr;\n    address WBNBAddr;\n    address cakeAddr;\n    PancakeRouter swapper;\n    CakeToken cakeContract;\n    FakeFarmContract fakeFarm;\n    uint256 baseYield;\n\n    address public owner;\n\n    mapping(address => uint256) public stakingAmts;\n    uint256 numPpl;\n    modifier onlyOwner() {\n        require(msg.sender == owner, \"Not owner\");\n        // Underscore is a special character only used inside\n        // a function modifier and it tells Solidity to\n        // execute the rest of the code.\n        _;\n    }\n\n    constructor(\n        address _routerAddr,\n        address _cakeTokenAddr,\n        address _fakeFarmAddr\n    ) public {\n        owner = msg.sender;\n        swapper = PancakeRouter(_routerAddr);\n        // cakeContract = CakeToken(0xf9f93cf501bfadb6494589cb4b4c15de49e85d0e);\n        cakeContract = CakeToken(_cakeTokenAddr);\n        fakeFarm = FakeFarmContract(_fakeFarmAddr);\n        WBNBAddr = 0xae13d989daC2f0dEbFf460aC112a837C89BAa7cd;\n        cakeAddr = 0xF9f93cF501BFaDB6494589Cb4b4C15dE49E85D0e;\n        numPpl = 0;\n        baseYield = 5;\n    }\n\n    function setSwapper(address _contract) public {\n        swapper = PancakeRouter(_contract);\n    }\n\n    function deposit() public payable {\n        address[] memory path = new address[](2);\n        path[0] = WBNBAddr;\n        path[1] = cakeAddr;\n        uint256[] memory amts = swapper.swapExactETHForTokens{value: msg.value}(\n            0,\n            path,\n            address(this),\n            1667183841\n        );\n\n        _stake();\n    }\n\n    function _stake() private returns (uint256) {\n        uint256 staked = fakeFarm.stake(cakeContract.balanceOf(address(this)));\n        return staked;\n    }\n\n    function distribute() public returns (uint256) {\n        uint256 unstaked = fakeFarm.unstake();\n        // do lottery, pick wallets of participants proportional to deposit\n        // disperse all profits (make sure to track initial deposits) to window\n        // for each winner blah blah blah\n        return unstaked;\n    }\n\n    function test() public pure returns (string memory) {\n        return \"poo\";\n    }\n}\n",
  "sourcePath": "/Users/kevinli/HackTX2021-Poolable/contracts/Pool.sol",
  "compiler": {
    "name": "solc",
    "version": "0.6.12+commit.27d51765.Emscripten.clang"
  },
  "schemaVersion": "3.2.3",
  "updatedAt": "2021-10-31T07:38:24.785Z",
  "devdoc": {
    "kind": "dev",
    "methods": {},
    "version": 1
  },
  "userdoc": {
    "kind": "user",
    "methods": {},
    "version": 1
  }
}